{
    "contractName": "Voter",
    "abi": [
        {
            "inputs": [
                {
                    "internalType": "address",
                    "name": "minter_",
                    "type": "address"
                },
                {
                    "internalType": "address",
                    "name": "ve_",
                    "type": "address"
                }
            ],
            "stateMutability": "nonpayable",
            "type": "constructor"
        },
        {
            "inputs": [
                {
                    "internalType": "uint256",
                    "name": "lendingId",
                    "type": "uint256"
                }
            ],
            "name": "getTotalVotesOfLending",
            "outputs": [
                {
                    "internalType": "int256",
                    "name": "",
                    "type": "int256"
                }
            ],
            "stateMutability": "view",
            "type": "function"
        },
        {
            "inputs": [
                {
                    "internalType": "uint256",
                    "name": "tokenId",
                    "type": "uint256"
                }
            ],
            "name": "getVotePower",
            "outputs": [
                {
                    "internalType": "uint256",
                    "name": "",
                    "type": "uint256"
                }
            ],
            "stateMutability": "view",
            "type": "function"
        },
        {
            "inputs": [
                {
                    "internalType": "uint256",
                    "name": "",
                    "type": "uint256"
                }
            ],
            "name": "lendingVotes",
            "outputs": [
                {
                    "internalType": "int256",
                    "name": "",
                    "type": "int256"
                }
            ],
            "stateMutability": "view",
            "type": "function"
        },
        {
            "inputs": [
                {
                    "internalType": "uint256",
                    "name": "",
                    "type": "uint256"
                }
            ],
            "name": "powerUsed",
            "outputs": [
                {
                    "internalType": "uint256",
                    "name": "",
                    "type": "uint256"
                }
            ],
            "stateMutability": "view",
            "type": "function"
        },
        {
            "inputs": [
                {
                    "internalType": "uint256",
                    "name": "",
                    "type": "uint256"
                }
            ],
            "name": "proposedLendings",
            "outputs": [
                {
                    "internalType": "bool",
                    "name": "",
                    "type": "bool"
                }
            ],
            "stateMutability": "view",
            "type": "function"
        },
        {
            "inputs": [
                {
                    "internalType": "uint256",
                    "name": "lendingId",
                    "type": "uint256"
                }
            ],
            "name": "submitLending",
            "outputs": [],
            "stateMutability": "nonpayable",
            "type": "function"
        },
        {
            "inputs": [
                {
                    "internalType": "uint256",
                    "name": "lendingId",
                    "type": "uint256"
                },
                {
                    "internalType": "uint256[]",
                    "name": "tokenIds",
                    "type": "uint256[]"
                },
                {
                    "internalType": "int256[]",
                    "name": "weights",
                    "type": "int256[]"
                }
            ],
            "name": "vote",
            "outputs": [],
            "stateMutability": "nonpayable",
            "type": "function"
        }
    ],
    "bytecode": "608060405234801561001057600080fd5b5060405161073038038061073083398101604081905261002f9161007c565b600080546001600160a01b039384166001600160a01b031991821617909155600180549290931691161790556100af565b80516001600160a01b038116811461007757600080fd5b919050565b6000806040838503121561008f57600080fd5b61009883610060565b91506100a660208401610060565b90509250929050565b610672806100be6000396000f3fe608060405234801561001057600080fd5b506004361061007d5760003560e01c80634b38e1311161005b5780634b38e131146100de578063811a4aca146100f1578063e648409814610111578063ebdbcae81461014457600080fd5b80633632fe09146100825780633a83fde0146100b55780633b804b20146100c9575b600080fd5b6100a26100903660046103da565b60036020526000908152604090205481565b6040519081526020015b60405180910390f35b6100a26100c33660046103da565b50600090565b6100dc6100d73660046104c9565b610164565b005b6100dc6100ec3660046103da565b61021b565b6100a26100ff3660046103da565b60009081526003602052604090205490565b61013461011f3660046103da565b60026020526000908152604090205460ff1681565b60405190151581526020016100ac565b6100a26101523660046103da565b60046020526000908152604090205481565b80518251146101ba5760405162461bcd60e51b815260206004820152601f60248201527f566f7465723a20544f4b454e5f49445f5745494748545f4d49534d415443480060448201526064015b60405180910390fd5b60005b825181101561021557610203848483815181106101dc576101dc61058d565b60200260200101518484815181106101f6576101f661058d565b6020026020010151610295565b8061020d816105b9565b9150506101bd565b50505050565b60008181526002602052604090205460ff161561027a5760405162461bcd60e51b815260206004820152601860248201527f566f7465723a20414c52454144595f5355424d4954544544000000000000000060448201526064016101b1565b6000908152600260205260409020805460ff19166001179055565b60008381526002602052604090205460ff166102f35760405162461bcd60e51b815260206004820152601c60248201527f566f7465723a204c454e44494e475f4e4f545f5355424d49545445440000000060448201526064016101b1565b60015460405163430c208160e01b8152336004820152602481018490526001600160a01b039091169063430c208190604401602060405180830381865afa158015610342573d6000803e3d6000fd5b505050506040513d601f19601f8201168201806040525081019061036691906105d2565b6103b25760405162461bcd60e51b815260206004820152601c60248201527f566f7465723a20544f4b454e5f49445f4e4f545f415050524f5645440000000060448201526064016101b1565b600083815260036020526040812080548392906103d09084906105fb565b9091555050505050565b6000602082840312156103ec57600080fd5b5035919050565b634e487b7160e01b600052604160045260246000fd5b604051601f8201601f1916810167ffffffffffffffff81118282101715610432576104326103f3565b604052919050565b600067ffffffffffffffff821115610454576104546103f3565b5060051b60200190565b600082601f83011261046f57600080fd5b8135602061048461047f8361043a565b610409565b82815260059290921b840181019181810190868411156104a357600080fd5b8286015b848110156104be57803583529183019183016104a7565b509695505050505050565b6000806000606084860312156104de57600080fd5b8335925060208085013567ffffffffffffffff808211156104fe57600080fd5b818701915087601f83011261051257600080fd5b813561052061047f8261043a565b81815260059190911b8301840190848101908a83111561053f57600080fd5b938501935b8285101561055d57843582529385019390850190610544565b96505050604087013592508083111561057557600080fd5b50506105838682870161045e565b9150509250925092565b634e487b7160e01b600052603260045260246000fd5b634e487b7160e01b600052601160045260246000fd5b6000600182016105cb576105cb6105a3565b5060010190565b6000602082840312156105e457600080fd5b815180151581146105f457600080fd5b9392505050565b600080821280156001600160ff1b038490038513161561061d5761061d6105a3565b600160ff1b8390038412811615610636576106366105a3565b5050019056fea264697066735822122088eb5d0b87f7f9b51eddeb0a7f4579d38cb63ec44a9c1849ed914d881b803eaa64736f6c634300080d0033",
    "sourcePath": "c:/Users/ASUS/Desktop/dev/dei-emission/contracts/Voter.sol",
    "compiler": {
        "name": "solc",
        "version": "0.8.13+commit.abaa5c0e"
    },
    "functionHashes": {
        "getTotalVotesOfLending(uint256)": "811a4aca",
        "getVotePower(uint256)": "3a83fde0",
        "lendingVotes(uint256)": "3632fe09",
        "powerUsed(uint256)": "ebdbcae8",
        "proposedLendings(uint256)": "e6484098",
        "submitLending(uint256)": "4b38e131",
        "vote(uint256,uint256[],int256[])": "3b804b20"
    },
    "gasEstimates": {
        "creation": {
            "codeDepositCost": "330000",
            "executionCost": "infinite",
            "totalCost": "infinite"
        },
        "external": {
            "getTotalVotesOfLending(uint256)": "2449",
            "getVotePower(uint256)": "286",
            "lendingVotes(uint256)": "2428",
            "powerUsed(uint256)": "2493",
            "proposedLendings(uint256)": "2494",
            "submitLending(uint256)": "26703",
            "vote(uint256,uint256[],int256[])": "infinite"
        },
        "internal": {
            "_vote(uint256,uint256,int256)": "infinite"
        }
    }
}